:100000000C948B000C94B3000C94B3000C94B300CC
:100010000C94B3000C94B3000C94B3000C94B30094
:100020000C94B3000C94B3000C94B3000C94B30084
:100030000C94B3000C94B3000C94B3000C94B30074
:100040000C9474070C94B3000C94280A0C941909AE
:100050000C94B3000C94B3000C94B3000C94B30054
:100060000C94D2040C94B300D608ED08ED08EA080D
:10007000ED08D408ED08ED08ED08C808ED08ED0816
:10008000DD08E808E608ED08ED08ED08E4080000E2
:10009000000023002600290032313A30393A30334B
:1000A00000417072203135203230323000000000C3
:1000B00000240027002A00000000070002010000C1
:1000C000030406000000000000000032313A30391D
:1000D0003A303300417072203135203230323000F6
:1000E00001020408102040800102040810200102CF
:1000F0000408102000000000250028002B00040444
:1001000004040404040402020202020203030303BF
:100110000303BB10AB1011241FBECFEFD8E0DEBF2E
:10012000CDBF11E0A0E0B1E0EAE3FBE202C0059040
:100130000D92AE3FB107D9F723E0AEEFB1E001C0B9
:100140001D92AE3AB207E1F710E0CAE8D0E004C071
:100150002197FE010E948A15C938D107C9F70E946C
:10016000580E0C94AB110C94000085ED8093BC00EC
:100170008091BC0084FDFCCF1092AF0208956132E3
:1001800098F42091AF02243089F460932702282F3D
:10019000A7E0B2E0FC018E2F821B861718F4819134
:1001A0008D93F9CF80E0089581E0089582E008956D
:1001B0000895E091680280916702E81730F4F0E05A
:1001C000E759FD4F808190E008958FEF9FEF0895EC
:1001D0009091680280916702981750F4E92FF0E03F
:1001E000E759FD4F208130E09F5F9093680202C085
:1001F0002FEF3FEFC90108958091670290E02091B1
:100200006802821B91090895CF92DF92EF92FF92CC
:100210000F931F93CF93DF937C01CB018A01209131
:10022000B002222389F0EB016B01C40ED51ECC1560
:10023000DD0569F06991D701ED91FC910190F081A4
:10024000E02DC7010995F3CF642F0E94BF00C801BC
:10025000DF91CF911F910F91FF90EF90DF90CF90A2
:100260000895CF93DF931F92CDB7DEB769832091B6
:10027000B0022223D1F02091D302203240F021E0BD
:1002800030E0FC013383228380E090E015C0809150
:10029000B102E82FF0E0EE54FD4F998190838F5F1B
:1002A0008093B1028093D30205C061E0CE01019634
:1002B0000E94BF0081E090E00F90DF91CF91089500
:1002C0008F929F92AF92BF92CF92DF92EF92FF9266
:1002D0000F931F93CF93DF93CDB7DEB7AC970FB6D5
:1002E000F894DEBF0FBECDBFDC011696ED91FC91F8
:1002F0001797319609F46DC069018A017B014C01A1
:10030000FE0131965F0188E2DF011D928A95E9F7CF
:10031000D401ED91FC910484F585E02DB501C40173
:100320000995009709F057C01CA61BA61AA619A686
:10033000D401ED91FC910684F785E02D9E01275DA7
:100340003F4FAE01455D5F4FB501C4010995009770
:1003500009F041C0C114D10439F088E2F501D60199
:1003600001900D928A95E1F7E114F10481F08CA5DA
:10037000682F782F770F770B072E000C880B990BBF
:100380000E945714F7016083718382839383011560
:10039000110589F08AA5682F782F770F770B072E24
:1003A000000C880B990B0E945714D8016D937D9314
:1003B0008D939C9313978BA59CA5009739F429A541
:1003C0003AA5232B41F486E190E005C080E090E05F
:1003D00002C087E190E0AC960FB6F894DEBF0FBE86
:1003E000CDBFDF91CF911F910F91FF90EF90DF90E4
:1003F000CF90BF90AF909F908F9008958F929F92D3
:10040000AF92BF92CF92DF92EF92FF920F931F9322
:10041000CF93DF93EC018B015A017901E881F981D7
:100420000284F385E02D0995C82EB801685F7F4FDF
:10043000E881F9810284F385E02DCE010995D82E5B
:10044000B801605F7F4FE881F9810284F385E02D78
:10045000CE010995882EB801685E7F4FE881F98149
:100460000284F385E02DCE010995982EB801605ED7
:100470007F4FE881F9810284F385E02DCE01099553
:100480009C2D9D0D980D990D89130FC0892D90E01D
:100490009829F501918380838D2D90E09C29F701A7
:1004A0009183808380E090E002C085E190E0DF915D
:1004B000CF911F910F91FF90EF90DF90CF90BF9061
:1004C000AF909F908F90089547E050E080E0FB014F
:1004D0002191BF01042E01C0220F0A94EAF7820F76
:1004E00041505109A0F70895CF92DF92EF92FF9209
:1004F0000F931F93CF93DF93CDB7DEB728970FB637
:10050000F894DEBF0FBECDBFDC011696ED91FC91D5
:100510001797319691F18A017B011D821E821F82FD
:10052000188619821A821B821C82DC01ED91FC91D3
:100530000480F581E02DAE014F5F5F4FBE016B5F20
:100540007F4F09956C01892BB1F4E114F10441F05E
:100550006D817E818F8198850E941F14F7016083D1
:100560000115110541F069817A818B819C810E947E
:100570001F14D8016C93C60102C087E190E0289651
:100580000FB6F894DEBF0FBECDBFDF91CF911F91A4
:100590000F91FF90EF90DF90CF900895FC01908134
:1005A00090539A3008F090E0818180532AE0929F26
:1005B000800D112408950F931F93CF93DF93FC01B7
:1005C000A685B7858D01005C1F4FE8018881998160
:1005D00001968F739927AD014E5B5F4FEA01288129
:1005E000398128173907D1F3E80128813981A20F11
:1005F000B31F6C93A685B785A05CBF4F11969C93E3
:100600008E93A689B7892C9181E090E0078C02C077
:10061000880F991F0A94E2F7822B8C9381E081A3C3
:100620000488F589E02D80818064808381E090E0FA
:10063000DF91CF911F910F910895FC0181A1882333
:1006400029F0A489B5898C9186FFFBCF11A208956A
:10065000FC01A485B585FD01E05CFF4F208131815F
:100660003296808191812817390779F080819181B4
:10067000A80FB91F8C91208131812F5F3F4F2F73BD
:1006800033273183208390E008958FEF9FEF089503
:10069000DC011C96ED91FC911D97DF01A05CBF4F22
:1006A0002D913C91119712968D919C91119728173D
:1006B000390739F08D919C91E80FF91F808190E006
:1006C00008958FEF9FEF0895FC0124853585F9018A
:1006D000E05CFF4F80819181329620813181821BC5
:1006E000930B8F739927089588E693E00C94640325
:1006F0008F929F92AF92BF92EF92FF920F931F93B0
:10070000CF93DF93CDB7DEB7A1970FB6F894DEBFD6
:100710000FBECDBF162F042F19A2423008F40AE0F5
:100720007E0121E2E20EF11C802E912CA12CB12C35
:10073000612FA50194010E94E911029F1019112453
:1007400081E0E81AF1081A3014F4105D01C0195C58
:10075000F7011083122F732FCA01232B242B252B73
:1007600039F7C7010E943A0EA1960FB6F894DEBF82
:100770000FBECDBFDF91CF911F910F91FF90EF90F2
:10078000BF90AF909F908F900895CF92DF92EF929D
:10079000FF92CF93DF9397FF1BC06B017C016DE24B
:1007A00088E693E00E94DB02EC0166277727CB0105
:1007B0006C197D098E099F094AE00E9478038C0F0D
:1007C0009D1FDF91CF91FF90EF90DF90CF90089524
:1007D0004AE0DF91CF91FF90EF90DF90CF900C94A3
:1007E0007803CF93DF93BC01990F880B990B0E947C
:1007F000C503EC010E94280E8C0F9D1FDF91CF9145
:1008000008958F929F92AF92BF92CF92DF92EF9214
:10081000FF920F931F93CF93DF936B017C01142FF3
:100820009B01AC010E947915882319F08EE491E0B8
:1008300027C046015701E894B7F82FEF3FEF4FE785
:100840005FE7C501B4010E94791581110DC02FEF3A
:100850003FEF4FE75FE7C501B4010E94A8131816E8
:100860001CF482E591E00CC02FEF3FEF4FE75FE40F
:10087000C701B6010E940715181684F486E591E0B9
:10088000DF91CF911F910F91FF90EF90DF90CF906C
:10089000BF90AF909F908F900C943A0E2FEF3FEF48
:1008A0004FE75FECC701B6010E94A81387FDE6CFB2
:1008B00020E030E0A901C701B6010E94A81387FF1C
:1008C0000BC06DE288E693E00E94DB02EC01F7FAD0
:1008D000F094F7F8F09402C0C0E0D0E000E060E0EF
:1008E00070E080E09FE3101741F020E030E040E24C
:1008F00051E40E94AD130F5FF6CFA70196010E944D
:100900003C136B017C010E9426144B015C014AE000
:100910000E947803C80FD91F1123B1F1C501B4019A
:100920000E9455149B01AC01C701B6010E943B1304
:100930006B017C018AE591E00E943A0EC80FD91F35
:1009400020E030E040E251E4C701B6010E940C15FE
:100950004B015C010E941F146B01770FEE08FF082A
:10096000C701B6010E94C503C80FD91FC701B60150
:100970000E9457149B01AC01C501B4010E943B13B6
:100980006B017C011150E1F6CE01DF91CF911F91F7
:100990000F91FF90EF90DF90CF90BF90AF909F901E
:1009A0008F9008951F920F920FB60F9211242F93DC
:1009B0003F934F935F936F937F938F939F93AF93E7
:1009C000BF93EF93FF938091B900887F803609F43D
:1009D0009CC068F5883209F45BC090F4803109F45A
:1009E00054C038F4882309F4EFC0883009F44DC0AE
:1009F000EFC0883109F44CC0803209F45DC0E8C012
:100A0000803409F468C048F4803309F455C0883351
:100A100009F0DEC08093AD02D1C0803509F44FC02B
:100A2000883509F45DC0883409F0D2C0CFC0883958
:100A300009F4C0C0A8F4883709F467C038F48836D0
:100A400009F463C0803709F460C0C2C0883809F473
:100A5000B1C0803909F45FC0803809F0B9C05BC00B
:100A6000803B09F481C038F4803A09F466C0883AC2
:100A700009F47AC0ADC0803C09F4A0C0883C09F4F8
:100A80009DC0883B09F483C0A3C080918A0210C036
:100A90009091AC028091AB02981770F5E091AC0296
:100AA00081E08E0F8093AC02F0E0E557FD4F80812E
:100AB0008093BB0085EC7FC08093AD0287C0E0913E
:100AC000AC0281E08E0F8093AC028091BB00F0E01D
:100AD000E557FD4F80839091AC028091AB0267C0D7
:100AE000E091AC0281E08E0F8093AC028091BB005C
:100AF000F0E0E557FD4F80838091AE02811166C022
:100B000081E08093890284EA5AC083E08093AF0237
:100B100010924902CFCF80914902803208F04AC03A
:100B2000E091490281E08E0F809349028091BB00E1
:100B3000F0E0E75DFD4F8083BDCF809149028032B8
:100B400030F4E0914902F0E0E75DFD4F10820E9431
:100B5000B5006091490270E089E292E0E0E0F0E0E7
:100B60000995109249022AC084E08093AF02109246
:100B7000280210922702E0E0F0E009958091270218
:100B8000811105C081E08093270210920702E09155
:100B9000280281E08E0F80932802F0E0E95FFD4F8C
:100BA00080818093BB009091280280912702981742
:100BB00008F480CF85E88093BC000AC085EC809360
:100BC000BC001092AF0204C01092AD020E94B500AA
:100BD000FF91EF91BF91AF919F918F917F916F9115
:100BE0005F914F913F912F910F900FBE0F901F90EB
:100BF00018953FB7F8948091030290910402A09158
:100C00000502B091060226B5A89B05C02F3F19F03A
:100C10000196A11DB11D3FBFBA2FA92F982F88277C
:100C2000820F911DA11DB11DBC01CD0142E0660FD7
:100C3000771F881F991F4A95D1F708958F929F9229
:100C4000AF92BF92EF92FF920F931F93CF93DF93D8
:100C5000EC018B0188E2FB0111928A95E9F761E0D2
:100C60008E810E94910A60E08E810E94620A0E9439
:100C7000F9057B01F4E18F2E912CA12CB12C0E945F
:100C8000F9056E197F09683E7340C8F381E0881A40
:100C90009108A108B108E8E1EE1AECEFFE0A811410
:100CA0009104A104B10459F761E08E810E94620AA7
:100CB00060E08E810E94910A8EE590E00197F1F745
:100CC000E881F9810084F185E02D26E030E04AE0FA
:100CD00050E060E0CE0109956E3171058105910506
:100CE00034F4B82FA72F962F882780616FC0E88132
:100CF000F9810084F185E02D26E030E04AE050E003
:100D000061E0CE010995623371058105910534F4E6
:100D1000B82FA72F962F8827816158C07801F8E255
:100D2000EF0EF11CE881F9810084F185E02D26E0C9
:100D300030E04AE050E060E0CE010995683171058D
:100D40008105910534F4B82FA72F962F882782614B
:100D50003DC0E881F9810084F185E02D26E030E096
:100D60004AE050E061E0CE0109956B3071058105E4
:100D7000910534F4B82FA72F962F8827836126C0BA
:100D800021E069327105810591050CF420E0F8013C
:100D900021938F01EE16FF0629F6E881F981008480
:100DA000F185E02D26E030E04AE050E060E0CE0141
:100DB0000995683171058105910534F4B82FA72F85
:100DC000962F8827846102C080E090E0DF91CF9168
:100DD0001F910F91FF90EF90BF90AF909F908F90D9
:100DE00008953F924F925F926F927F928F929F925F
:100DF000AF92BF92CF92DF92EF92FF920F931F9329
:100E0000CF93DF93EC01162F7A0169010E94F90557
:100E10004B015C01112311F0388401C0312CC70152
:100E2000880F991F880F991F9C01265031092901AD
:100E3000C601880F991F880F991F9C012650310900
:100E4000390100E010E060E070E0CB012A813B81D5
:100E50004C815D8126173707480759072CF44FEF5F
:100E60003FEF2FEF9FEF2BC00115110531F432E05A
:100E7000E316F1044CF0C20105C082E0C816D104AB
:100E80001CF0C3010197F1F70E94F905681979096F
:100E90008A099B09E985F0E0EE0FFF1FE257FF4F3B
:100EA000A591B4913C910F5F1F4F288523233212E7
:100EB00003C097FFCBCFD3CF462F372F282F642FD8
:100EC000732F822FDF91CF911F910F91FF90EF90A1
:100ED000DF90CF90BF90AF909F908F907F906F905A
:100EE0005F904F903F9008951F920F920FB60F9210
:100EF00011242F933F938F939F93AF93BF93809130
:100F0000FF0190910002A0910102B0910202309184
:100F1000FE0123E0230F2D3720F40196A11DB11D02
:100F200005C026E8230F0296A11DB11D2093FE01E6
:100F30008093FF0190930002A0930102B0930202FC
:100F40008091030290910402A0910502B0910602E3
:100F50000196A11DB11D8093030290930402A093FA
:100F60000502B0930602BF91AF919F918F913F917F
:100F70002F910F900FBE0F901F901895DC011796C0
:100F80007C936E931697FB01E052FF4FE491189605
:100F9000EC931897FB01E250FF4F649119966C9304
:100FA0000895CF92DF92EF92FF920F931F93CF930A
:100FB000DF93EC017A0169010E94BE07E881F981A3
:100FC0000480F581E02D9801A601B701CE01DF91E3
:100FD000CF911F910F91FF90EF90DF90CF900994E8
:100FE000CF92DF92EF92FF920F931F93CF93DF93F5
:100FF000EC017A0169010E94BE07E881F981019044
:10100000F081E02D9801A601B701CE01DF91CF91CB
:101010001F910F91FF90EF90DF90CF900994CF92A6
:10102000DF92EF92FF920F931F93CF93DF93EC0128
:1010300081E08093B00288E68093D2021092B102E0
:101040001092D30260E084ED92E00E9431010E9490
:10105000B80B67E088E60E94100C1092680280933B
:10106000670284ED92E00E94E8008F77982F9295B6
:101070009F701AEF082F919F000D112484ED92E0CC
:101080000E94E8009C01332794E0359527959A95B6
:10109000E1F7F82E129FF00C112484ED92E00E94EB
:1010A000E8009C01332744E0359527954A95E1F700
:1010B000E82E129FE00C112484ED92E00E94E800DB
:1010C00084ED92E00E94E8009C01332754E03595BE
:1010D00027955A95E1F7D82E129FD00C112484ED54
:1010E00092E00E94E8009C01332764E03595279543
:1010F0006A95E1F7C82E129FC00C112484ED92E08E
:101100000E94E8009C01332774E0359527957A9575
:10111000E1F7129F800D11248883C982DA82EB8265
:10112000FC820D83CE01DF91CF911F910F91FF9033
:10113000EF90DF90CF900895EF92FF920F931F935F
:10114000CF93DF93CDB7DEB72B970FB6F894DEBF02
:101150000FBECDBF8C017A014BE050E0CE0101966D
:101160000E94AE11CE010A960E94CE02F801808341
:10117000E9818E2FEE0F990BAA0BBB0BFC01E154FA
:10118000F109E331F10548F5EC5CFF4F0C948A1549
:101190008A81813629F08B818E3621F087E01BC051
:1011A00081E019C086E017C082E015C08B818237CC
:1011B00011F088E010C084E00EC08B81823711F0FE
:1011C00085E009C083E007C089E005C08AE003C06C
:1011D0008BE001C08CE0F8018183CE0105960E946E
:1011E000CE02F801828348E050E0B701CE010196BB
:1011F0000E94AE11CE0101960E94CE02F8018383B7
:10120000CE0104960E94CE02F8018483CE01079697
:101210000E94CE02F80185832B960FB6F894DEBFAC
:101220000FBECDBFDF91CF911F910F91FF90EF9037
:1012300008951F920F920FB60F9211242F933F9390
:101240008F939F93EF93FF9320912003309121037D
:1012500080912203909123032817390731F480915C
:10126000C1008F7D8093C10014C0E0912203F091F2
:101270002303E052FD4F20818091220390912303AC
:1012800001968F73992790932303809322032093D1
:10129000C600FF91EF919F918F913F912F910F90F9
:1012A0000FBE0F901F9018950895CF92DF92EF9286
:1012B000FF920F931F93CF93DF936C01EB017B01A0
:1012C000E40EF51E00E010E0CE15DF0561F0699137
:1012D000D601ED91FC910190F081E02DC6010995B8
:1012E000080F191FF1CFC801DF91CF911F910F9106
:1012F000FF90EF90DF90CF9008958E3008F08E50E1
:101300008770806480937C0080917A0080648093F1
:101310007A0080917A0086FDFCCF80917800209140
:10132000790090E0922B0895833081F028F4813089
:1013300099F08230A1F008958630A9F08730B9F095
:101340008430D1F4809180008F7D03C08091800033
:101350008F7780938000089584B58F7702C084B51D
:101360008F7D84BD08958091B0008F7703C08091F8
:10137000B0008F7D8093B0000895CF93DF93282F26
:1013800030E0F901E954FF4F8491F901E052FF4F39
:10139000D491F901E250FF4FC491CC2391F0811117
:1013A0000E949409EC2FF0E0EE0FFF1FE257FF4F71
:1013B000A591B491EC91ED2381E090E021F480E0DF
:1013C00002C080E090E0DF91CF910895CF93DF934A
:1013D00000D000D000D0CDB7DEB7CE0101960E947C
:1013E0000F088E8190E026960FB6F894DEBF0FBEF0
:1013F000CDBFDF91CF910895CF93DF9300D000D080
:1014000000D0CDB7DEB7CE0101960E940F088D81C6
:1014100090E026960FB6F894DEBF0FBECDBFDF91E9
:10142000CF910895CF93DF9300D000D000D0CDB7F7
:10143000DEB7CE0101960E940F088C8190E02696BF
:101440000FB6F894DEBF0FBECDBFDF91CF910895E8
:101450001F920F920FB60F9211242F934F935F9309
:101460008F939F93EF93FF938091C00082FD1CC0E8
:101470002091C600809164039091650340916603BA
:101480005091670301968F7399274817590771F098
:10149000E0916403F0916503EC5DFC4F2083909331
:1014A00065038093640302C08091C600FF91EF91B1
:1014B0009F918F915F914F912F910F900FBE0F9041
:1014C0001F9018951F93CF93DF93282F30E0F901D9
:1014D000E954FF4F8491F901E052FF4FD491F90193
:1014E000E250FF4FC491CC23C1F0162F81110E940E
:1014F0009409EC2FF0E0EE0FFF1FEC50FF4FA59189
:10150000B4919FB7F894111104C08C91D095D82351
:1015100002C0EC91DE2BDC939FBFDF91CF911F9136
:101520000895CF93DF9390E0FC01E052FF4F2491A8
:10153000FC01E250FF4F8491882361F190E0880F15
:10154000991FFC01E355FF4FC591D491FC01EC506C
:10155000FF4FA591B491611109C09FB7F89488819C
:10156000209582238883EC912E230BC0623061F496
:101570009FB7F8948881322F309583238883EC912C
:101580002E2B2C939FBF06C08FB7F894E8812E2B8B
:1015900028838FBFDF91CF9108950F931F93CF932F
:1015A000DF9300D000D000D0CDB7DEB7E0917C0350
:1015B000F0917D0381E090E09C010090880302C0DF
:1015C000220F331F0A94E2F72083E0917803F09111
:1015D00079031082E0917A03F0917B032FEC208352
:1015E00010928903E0917E03F0917F0340819C017A
:1015F0000090840302C0220F331F0A94E2F7242BC9
:101600002083E0917E03F0917F0340819C01009054
:10161000850302C0220F331F0A94E2F7242B208394
:10162000E0917E03F0917F0340819C01009086034E
:1016300002C0220F331F0A94E2F7242B2083E0918B
:101640007E03F0917F0320810090870302C0880F02
:10165000991F0A94E2F780958223808361E087E0F6
:101660000E94910A60E087E00E94620A61E088E0DF
:101670000E94910A60E088E00E94620A80919003D3
:101680009091910397FD08C061E00E94910A60E08B
:10169000809190030E94620A81E080938B0300E0B6
:1016A00010E040E050E0BA01C8010E94FB0C0F5F5F
:1016B0001F4F0D301105A9F780919303909194036A
:1016C000892B11F00E946F0D60E080E10E94910A69
:1016D00010926802109267021092B1021092D30227
:1016E0001092AF0211E01093AE021092890261E0F5
:1016F00082E10E94620A61E083E10E94620A8091B5
:10170000B9008E7F8093B9008091B9008D7F80935E
:10171000B90088E48093B80085E48093BC001093FE
:10172000B00288E68093D2021092B1021092D302E6
:101730000E94B80B811117C048E950E061EA70E0DF
:10174000CE0101960E949C08CE0101960E944E0C8B
:1017500026960FB6F894DEBF0FBECDBFDF91CF91B6
:101760001F910F9108958CE591E00E944C0EFFCFE0
:101770003091D302313208F047C08091AF0281111D
:10178000FCCF9091D20222E02093AF0221E020937F
:10179000AE022FEF2093AD021092AC023093AB0259
:1017A000E2EBF2E0ABE8B2E020E0321721F0419149
:1017B0004D932F5FFACF10928A0220918A02990FDF
:1017C000922B90938A0290918902913041F4109269
:1017D000890290918A029093BB0095EC01C095EE2E
:1017E0009093BC009091AF029230E1F39091AD02E2
:1017F0009F3F79F08091AD02803241F08091AD023F
:10180000803331F084E005C081E003C082E001C094
:1018100083E01092B1021092D3021092B0020895A8
:101820009091AF029111FCCF91E09093AF02909311
:10183000AE022FEF2093AD021092AC02260F209340
:10184000AB0290938A0290918A02880F892B809331
:101850008A0280918902813041F41092890280913C
:101860008A028093BB0085EC01C085EE8093BC00AA
:101870008091AF028130E1F38091AC02861710F4C1
:101880006091AC02ABE8B2E0E9E6F2E080E08617F6
:1018900021F09D9191938F5FFACF08950F931F933D
:1018A000CF93DF938C01D1E0D093B00288E6809390
:1018B000D2021092B1021092D30260E084ED92E065
:1018C0000E943101F8012581CAE0822F6C2F0E940D
:1018D0007E15682F660F860F880F682F620F84EDC4
:1018E00092E00E943101F8012481822F6C2F0E9426
:1018F0007E15682F660F860F880F682F620F84EDA4
:1019000092E00E943101F8012381822F6C2F0E9406
:101910007E15682F660F860F880F682F620F84ED83
:1019200092E00E94310160E084ED92E00E9431017A
:10193000F8012281822F6C2F0E947E15682F660F7E
:10194000860F880F682F620F84ED92E00E943101AC
:10195000F8012181822F6C2F0E947E15682F660F5F
:10196000860F880F682F620F84ED92E00E9431018C
:10197000F8012081822F6C2F0E947E15682F660F40
:10198000860F880F682F620F84ED92E00E9431016C
:101990000E94B80BD093B0021092B1021092D30201
:1019A0006FE084ED92E00E9431010E94B80B61E08B
:1019B00088E60E94100C109268028093670284ED02
:1019C00092E00E94E800C82FD093B0021092B102BA
:1019D0001092D3026FE084ED92E00E9431016C2FEF
:1019E0006F7784ED92E00E943101DF91CF911F91DA
:1019F0000F910C94B80B8F929F92AF92BF92CF929F
:101A0000DF92EF92FF92CF93DF9320918C0330917E
:101A10008D038217930708F057C04B01AA24BB24FB
:101A2000F82DC52ED62EE72EFF24AC2DE42F2091C5
:101A30009203222361F0829E40011124F92D2C9DF6
:101A400060011124AD2D249FE0011124ED2F309170
:101A50009803B0919503E0909303F09094033B13A7
:101A600008C09C01220F331F820F931F8E0D9F1DF4
:101A700019C0880F991F880F991F8E0D9F1D472F22
:101A8000552766277727EC01C30FD11D222349F084
:101A900030E0249F7001259FF00C349FF00C11243E
:101AA0004F2D488320919503EC01C20FD11DF8837F
:101AB00020919603EC01C20FD11DA88320919703BA
:101AC000DC01A20FB11DEC93DF91CF91FF90EF905D
:101AD000DF90CF90BF90AF909F908F9008950F931D
:101AE0001F93CF93DF93CDB7DEB729970FB6F89446
:101AF000DEBF0FBECDBF0E94F90500919903109182
:101B00009A0320919B0330919C03DC01CB01801B45
:101B1000910BA20BB30B8C329140A105B10558F388
:101B2000F89480918E0390918F039A838983E0913A
:101B30009303F0919403DF0111968081898790913E
:101B40008A03E0919D03F0919E0380919F03992366
:101B500009F42EC09081982B9887908180958923D5
:101B60008F838F818C8388E08B8358856F81498533
:101B70003B812C8189819A81508347FD252F3A959D
:101B80002083262F39F0441F00C00000608300002E
:101B900000C0F2CF38E04D9160830000019761F7FB
:101BA000F0939E03E0939D0349873B832C8338C0C9
:101BB0009081982B98879081809589238F838F813E
:101BC0008E8388E08D8358856F8149853D812E8184
:101BD00089819A81508347FD252F00C000C0208352
:101BE00000C000C000C000C000C060830000262FFD
:101BF0003A9541F0441F000000C000C000C000C082
:101C000000C0E8CF38E04D9100C0608300C001976C
:101C100009F7F0939E03E0939D0349873D832E834C
:101C20009A83898378940E94F9056093990370934D
:101C30009A0380939B0390939C0329960FB6F89484
:101C4000DEBF0FBECDBFDF91CF911F910F910895E1
:101C5000CF93DF936DE088E693E00E94DB02EC0116
:101C60006AE088E693E00E94DB028C0F9D1FDF9103
:101C7000CF910895009769F0FC0101900020E9F7E9
:101C80003197AF01481B590BBC0188E693E00C94D7
:101C9000550980E090E00895CF93DF930E943A0EBB
:101CA000EC010E94280E8C0F9D1FDF91CF910895AB
:101CB000CF93DF9300D000D000D0CDB7DEB77894BB
:101CC00084B5826084BD84B5816084BD85B5826041
:101CD00085BD85B5816085BD80916E0081608093F2
:101CE0006E0010928100809181008260809381005B
:101CF000809181008160809381008091800081606B
:101D0000809380008091B10084608093B1008091C5
:101D1000B00081608093B00080917A0084608093ED
:101D20007A0080917A00826080937A0080917A00B4
:101D3000816080937A0080917A00806880937A0035
:101D40001092C1000E94CD0A8AE7882E83E0982E67
:101D5000A12CB12CFF24F39400914A0210914B0264
:101D60000E5F1F4F0E94E60908171907ECF520E0E7
:101D700030E04FE552E063E672E080EA93E00E94D3
:101D800060018FE00E947D0990934D0280934C0288
:101D900080E10E947D0990935302809352028EE06D
:101DA0000E947D09092E000CAA0BBB0B9C01AD0102
:101DB0002456310941095109ACE9BFEF0E94E411F1
:101DC000A50194010E94B711DA01C9018C599F4FF6
:101DD000AF4FBF4F90934F0280934E020E94E6098F
:101DE00090934B0280934A0280914A0290914B0259
:101DF000C99724F010924B0210924A020E94FC09EB
:101E00002091500230915102281739070CF076C00A
:101E100081E791E00E944C0E0E94120ABC01990FCA
:101E2000880B990B0E94C5038CE991E00E943A0E41
:101E30000E94FC09BC01990F880B990B0E94C503F5
:101E40008CE991E00E943A0E0E94E6090E94F1039B
:101E50008EE991E00E943A0E6091630270916402F3
:101E6000809165029091660242E00E9401048CEA32
:101E700091E00E944C0E80EB91E00E943A0E60913E
:101E80005F0270916002809161029091620242E073
:101E90000E9401048AEB91E00E944C0E8EEB91E0CF
:101EA0000E943A0E80915202909153020E94F103D7
:101EB00087ED91E00E943A0E60914E0270914F02C0
:101EC000072E000C880B990B0E94C5038CEB91E048
:101ED0000E944C0E8EEE91E00E943A0E80914C02D0
:101EE00090914D020E94F10381E791E00E944C0E17
:101EF0000E94FC09909351028093500280915002FD
:101F000090915102CB9724F01092510210925002FE
:101F10000E94120A09970CF478C00E94120A449792
:101F20000CF073C00E94120A2091540230915502A5
:101F30002817390744F4F09258020E94120A90932D
:101F4000550280935402809158028823B9F00E9470
:101F5000E609C9979CF400E010E040E050E0BA01C7
:101F6000C8010E94FB0C0F5F1F4F0D301105A9F730
:101F70000E94E60990935702809356020E94E60958
:101F800020915602309157022E5F3F4F2817390794
:101F9000ACF580915202909153028732924074F1D5
:101FA0004BEC50E064ED70E0CE0101960E949C087D
:101FB000CE0101960E944E0C00E010E040E050E09F
:101FC0006EEB70E0C8010E94FB0C0F5F1F4F0630E4
:101FD0001105A1F74EEB5AEA60E070E0C8010E94DB
:101FE000FB0C0F5F1F4F0D301105A1F7809193037C
:101FF00090919403892B11F00E946F0D109258025A
:10200000109257021092560217C000E010E040E014
:1020100050E0BA01C8010E94FB0C0F5F1F4F0D304A
:102020001105A9F710925802109257021092560209
:1020300010925502109254020E94120A099724F03D
:102040000E94120A44972CF010925D0210925C02DA
:102050003FC00E94120A20915C0230915D02281755
:10206000390754F4F09259020E94120A90935D02CB
:1020700080935C020E94CD0A0E94E609C99724F46D
:1020800080915902811117C00E94E60920915A02DD
:1020900030915B02281739072CF487E00E94BD09B4
:1020A0000197B1F00E94120A0997DCF00E94120A0F
:1020B000449734F116C061E087E00E94620A0E94F2
:1020C000E60990935B0280935A0210925902DCCF8A
:1020D00060E087E00E94620A10925B0210925A024E
:1020E000E1CF10925E0260E088E00E94620A87E021
:1020F0000E94BD0988E00E94BD090E9474032CCE95
:1021000020E030E040EA51E46091630270916402A3
:1021100080916502909166020E940715181684F05E
:1021200020E030E048E452E460915F027091600288
:1021300080916102909162020E94071518161CF4AA
:10214000F0925E0202C010925E0280915E028823CD
:1021500051F261E0C9CF80919303909194030E9462
:10216000B212809190039091910397FD03C060E0BB
:102170000C94910A0895CF931092D7021092D60230
:1021800088EE93E0A0E0B0E08093D8029093D9026B
:10219000A093DA02B093DB022AE031E03093D5025B
:1021A0002093D40210926B0310926A0380936C0305
:1021B00090936D03A0936E03B0936F038AE191E057
:1021C000909369038093680384E293E0909375038E
:1021D0008093740380EE92E090937703809376036C
:1021E00085EC90E0909379038093780384EC90E001
:1021F00090937B0380937A0380EC90E090937D032F
:1022000080937C0381EC90E090937F0380937E0326
:1022100082EC90E0909381038093800386EC90E0C1
:10222000909383038093820384E08093840383E00C
:102230008093850387E08093860385E080938703FE
:10224000C1E0C09388038AE291E09093A103809358
:10225000A00380E49BE4ACE4B0E08093A2039093FD
:10226000A303A093A403B093A5038FEF9FEF9093D4
:10227000A7038093A6038093A8038093A90364E037
:1022800070E080EA93E00E94BE078EE391E09093B5
:10229000A1038093A00310928B03109292031092DB
:1022A000990310929A0310929B0310929C03109230
:1022B000980310929503C093960382E0809397034E
:1022C000C0938A0384E290E090938F0380938E03FF
:1022D0000E941A129093940380939303009761F0E5
:1022E00024E2FC0111922A95E9F78CE090E09093AA
:1022F0008D0380938C0308C010928F0310928E037D
:1023000010928D0310928C0389E090E090939103DA
:102310008093900380918B03882341F061E089E0F2
:102320000E94910A60E089E00E94620AE7E0F1E021
:10233000E491F0E0EE0FFF1FEC50FF4F8591949178
:1023400090939E0380939D03E9EEF0E0E491E09387
:102350009F03CF910895F8940C949015FB01DC0134
:1023600002C005900D9241505040D8F70895052EB7
:1023700097FB1EF400940E94CE1157FD07D00E94D7
:10238000E91107FC03D04EF40C94CE115095409502
:10239000309521953F4F4F4F5F4F08959095809511
:1023A000709561957F4F8F4F9F4F08950E940B123C
:1023B000A59F900DB49F900DA49F800D911D112499
:1023C0000895B7FF0C94D6110E94D611821B930B6F
:1023D0000895A1E21A2EAA1BBB1BFD010DC0AA1F66
:1023E000BB1FEE1FFF1FA217B307E407F50720F07E
:1023F000A21BB30BE40BF50B661F771F881F991FF9
:102400001A9469F760957095809590959B01AC0141
:10241000BD01CF010895A29FB001B39FC001A39F4A
:10242000700D811D1124911DB29F700D811D11240D
:10243000911D08950F931F93CF93DF9382309105E1
:1024400010F482E090E0E091AC03F091AD0320E065
:1024500030E0A0E0B0E0309719F140815181028175
:10246000138148175907C8F08417950769F4109726
:1024700031F012960C93129713961C9327C0009379
:10248000AC031093AD0322C02115310519F042179A
:10249000530718F49A01BD01EF01DF01F801DBCF0A
:1024A00021153105F9F0281B390B2430310580F452
:1024B0008A819B816115710521F0FB0193838283E1
:1024C00004C09093AD038093AC03FE01329644C0E8
:1024D000FE01E20FF31F819391932250310939835A
:1024E00028833AC02091AA033091AB03232B41F4F7
:1024F00020910201309103013093AB032093AA0392
:1025000020910001309101012115310541F42DB7D1
:102510003EB74091040150910501241B350BE09119
:10252000AA03F091AB03E217F307A0F42E1B3F0BB5
:102530002817390778F0AC014E5F5F4F2417350735
:1025400048F04E0F5F1F5093AB034093AA03819353
:10255000919302C0E0E0F0E0CF01DF91CF911F91B5
:102560000F910895CF93DF93009709F481C0FC0188
:10257000329713821282A091AC03B091AD031097F1
:1025800081F420813181820F931F2091AA03309121
:10259000AB032817390751F5F093AB03E093AA0377
:1025A00067C0ED0120E030E0CE17DF0740F44A813C
:1025B0005B819E0141155105F1F0EA01F5CFD3830E
:1025C000C28340815181840F951FC817D90759F4E0
:1025D00088819981840F951F0296918380838A81D7
:1025E0009B81938382832115310529F4F093AD03F8
:1025F000E093AC033DC0E901FB83EA834991599123
:10260000C40FD51FEC17FD0761F480819181840F01
:10261000951F0296E90199838883828193819B8328
:102620008A83E0E0F0E012968D919C9113970097D9
:1026300019F0FD01DC01F7CF8D919C9111979D015F
:102640002E5F3F4F820F931F2091AA033091AB035F
:102650002817390769F4309729F41092AD031092C6
:10266000AC0302C013821282B093AB03A093AA03FF
:10267000DF91CF9108955058BB27AA270E9453138A
:102680000C94CD140E94BF1438F00E94C61420F0A0
:1026900039F49F3F19F426F40C94BC140EF4E09521
:1026A000E7FB0C94B614E92F0E94DE1458F3BA1716
:1026B000620773078407950720F079F4A6F50C9458
:1026C00000150EF4E0950B2EBA2FA02D0B01B901C9
:1026D00090010C01CA01A0011124FF27591B99F098
:1026E000593F50F4503E68F11A16F040A22F232FA4
:1026F000342F4427585FF3CF469537952795A795F4
:10270000F0405395C9F77EF41F16BA0B620B730B9A
:10271000840BBAF09150A1F0FF0FBB1F661F771F0B
:10272000881FC2F70EC0BA0F621F731F841F48F4C0
:10273000879577956795B795F7959E3F08F0B0CF49
:102740009395880F08F09927EE0F97958795089530
:102750000E94921408F481E008950E94C1130C9421
:10276000CD140E94C61458F00E94BF1440F029F402
:102770005F3F29F00C94B61451110C9401150C9480
:10278000BC140E94DE1468F39923B1F3552391F32E
:10279000951B550BBB27AA2762177307840738F0D0
:1027A0009F5F5F4F220F331F441FAA1FA9F335D02D
:1027B0000E2E3AF0E0E832D091505040E695001CE1
:1027C000CAF72BD0FE2F29D0660F771F881FBB1F9B
:1027D000261737074807AB07B0E809F0BB0B802D79
:1027E000BF01FF2793585F4F3AF09E3F510578F0A5
:1027F0000C94B6140C9401155F3FE4F3983ED4F3A7
:10280000869577956795B795F7959F5FC9F7880F78
:10281000911D9695879597F90895E1E0660F771FCA
:10282000881FBB1F621773078407BA0720F0621B5B
:10283000730B840BBA0BEE1F88F7E09508950E9486
:1028400026146894B1110C94011508950E94E614A1
:1028500088F09F5798F0B92F9927B751B0F0E1F061
:10286000660F771F881F991F1AF0BA95C9F714C011
:10287000B13091F00E940015B1E008950C9400155C
:10288000672F782F8827B85F39F0B93FCCF386954A
:1028900077956795B395D9F73EF4909580957095A7
:1028A00061957F4F8F4F9F4F0895E89409C097FB24
:1028B0003EF490958095709561957F4F8F4F9F4F17
:1028C0009923A9F0F92F96E9BB279395F69587955B
:1028D00077956795B795F111F8CFFAF4BB0F11F41E
:1028E00060FF1BC06F5F7F4F8F4F9F4F16C08823C5
:1028F00011F096E911C0772321F09EE8872F762FFB
:1029000005C0662371F096E8862F70E060E02AF03B
:102910009A95660F771F881FDAF7880F9695879527
:1029200097F90895990F0008550FAA0BE0E8FEEFFC
:1029300016161706E807F907C0F012161306E40783
:10294000F50798F0621B730B840B950B39F40A267C
:1029500061F0232B242B252B21F408950A2609F45A
:10296000A140A6958FEF811D811D089597F99F675E
:1029700080E870E060E008959FEF80EC0895002407
:102980000A941616170618060906089500240A94D4
:1029900012161306140605060895092E0394000C5A
:1029A00011F4882352F0BB0F40F4BF2B11F460FFE9
:1029B00004C06F5F7F4F8F4F9F4F089557FD905812
:1029C000440F551F59F05F3F71F04795880F97FBF3
:1029D000991F61F09F3F79F08795089512161306AD
:1029E0001406551FF2CF4695F1DF08C016161706DC
:1029F0001806991FF1CF8695710561050894089511
:102A0000E894BB2766277727CB0197F908950E94A2
:102A1000921408F48FEF08950E941F150C94CD14A2
:102A20000E94BF1438F00E94C61420F0952311F0C4
:102A30000C94B6140C94BC1411240C9401150E942F
:102A4000DE1470F3959FC1F3950F50E0551F629F00
:102A5000F001729FBB27F00DB11D639FAA27F00DF7
:102A6000B11DAA1F649F6627B00DA11D661F829F1E
:102A70002227B00DA11D621F739FB00DA11D621F03
:102A8000839FA00D611D221F749F3327A00D611D20
:102A9000231F849F600D211D822F762F6A2F112402
:102AA0009F5750409AF0F1F088234AF0EE0FFF1F35
:102AB000BB1F661F771F881F91505040A9F79E3F8C
:102AC000510580F00C94B6140C9401155F3FE4F3AB
:102AD000983ED4F3869577956795B795F795E795E2
:102AE0009F5FC1F7FE2B880F911D9695879597F9EB
:102AF00008950E949214880B990B0895991B79E010
:102B000004C0991F961708F0961B881F7A95C9F77D
:102B100080950895EE0FFF1F0590F491E02D099424
:102B200010E0CAE8D0E004C0FE010E948A15219698
:0A2B3000CB38D107C9F7F894FFCFA6
:102B3A000000AE0320000000000031010401FC0087
:102B4A00E800D900D80000000000DB025509640340
:102B5A00280348031D03000000007402F00754090B
:102B6A005409F10664025409FE01000000007402CF
:102B7A00F0076001D107F10664021E06FE016E61CC
:102B8A006E00696E66006F7666002E005665726981
:102B9A006669636120636F6E6E657373696F6E69D0
:102BAA00003D3D3D3D3D3D3D3D3D3D3D3D3D3D3D88
:102BBA003D3D3D3D3D3D3D3D3D3D3D3D3D3D3D3D3B
:102BCA003D3D3D3D3D3D3D3D3D3D3D003A00546569
:102BDA006D70657261747572613A2000C2B043000B
:102BEA00556D69646974613A2000524825004C7534
:102BFA00636528304C756D4D61782D313032344221
:102C0A0075696F293A2000556D69646974C3A020FB
:102C1A0064656C2074657272656E6F3A20006C6927
:0E2C2A0076656C6C6F2061637175613A2000F5
:00000001FF
